:100000000C9465060C94102D0C94372D0C948D06D1
:100010000C948D060C94A8150C948D060C948D06EA
:100020000C948D060C948D060C948D060C948D0604
:100030000C948D060C948D060C948D060C948D06F4
:100040000C945E2D0C948D060C94FB310C942D3287
:100050000C948D060C948D060C948D060C948D06D4
:100060000C948D060C948D06B21E1D1FF91EFC1EED
:10007000FF1E021F051F081F0B1F1D1F141F171F28
:1000800053205520552053205520552055205520CC
:1000900055205520552055205520552055205520B8
:1000A0005520CF1F55205520552055205520461F3F
:1000B0005520552055205520552055205520552098
:1000C0005520552055205520552055205520DB1F03
:1000D000DB1FDB1FDB1FDB1FDB1FDB1FDB1FDB1F50
:1000E000552055205520552055205520461FDA1FF4
:1000F000DA1FDA1FDA1F5520E81FEE1FF41FFA1F60
:10010000002006200C2012201C20262030203A201F
:10011000841F491F4420552055205520CF1F5520AE
:100120005520552055205520552055205520D91FA4
:10013000D91FD91FD91F5520E81FEE1FF41FFA1F22
:10014000002006200C2012201C20262030203A20DF
:10015000841F491F4420552055205520CF1F88203B
:10016000882088208820882088208820882088204F
:10017000882088208820882093219321932193210F
:1001800093219321CB20D520DF20E9204721512145
:100190005F217021FE2213231F23282337235D2391
:1001A0006623C52379238E23BE26C426CA26D126DC
:1001B000DF2601271F27546F67676C6564206D6910
:1001C00063726F50504D00546F67676C65642069AF
:1001D0006E7665727465642050504D2100546F67CF
:1001E000676C6564205458206D7574696E672100D2
:1001F000546F67676C65642074656C656D657472B7
:1002000079210050726F746F636F6C206572726F2A
:100210007220776974682052580054696D656F7553
:1002200074207768656E20636F6E6E656374696EA7
:100230006720746F20525800507265737320616E8E
:1002400079206B657920746F2063616E63656C0043
:10025000436F6E6E656374696E6720746F205258C9
:100260002C20706F7765722075702074686520523D
:10027000582028776974682062696E6420706C75F4
:1002800067206966206E6F74207573696E672061E0
:100290006C776179732062696E642900546F6767B7
:1002A0006C65642027696E766572746564205050B1
:1002B0004D206F75747075742700546F67676C6597
:1002C000642027696D6D656469617465206F75745C
:1002D0007075742700546F67676C65642027736CB2
:1002E000617665206D6F64652700546F67676C6584
:1002F000642027616C776179732062696E642700DE
:10030000546F67676C65642050504D206368616E60
:100310006E656C206C696D6974005365742052536E
:10032000534920696E6A656374696F6E2063686102
:100330006E6E656C2028303D3D64697361626C654A
:1003400029005365742050504D206D696E696D759C
:100350006D2073796E630053657420626561636F0D
:100360006E20696E74657276616C005365742062EC
:100370006561636F6E2064656C61790053657420FC
:10038000626561636F6E206672657175656E637913
:1003900020696E20487A3A20303D64697361626C4E
:1003A000652C2050783D504D52206368616E6E651B
:1003B0006C20782C2046783D465253206368616E4D
:1003C0006E656C2078005365742050574D2073740F
:1003D0006F702064656C61792028302064697361D6
:1003E000626C65642C20312D323535203D3D203046
:1003F0002E3173202D2035306D696E2900536574C0
:100400002050504D2073746F702064656C617920AA
:1004100028302064697361626C65642C20312D3250
:100420003535203D3D20302E3173202D2035306D67
:10043000696E2900536574206661696C7361666535
:100440002064656C61792028302064697361626C76
:1004500065642C20312D323535203D3D20302E3144
:1004600073202D2035306D696E29002A2A2A2A2A08
:100470002A2A2A2A2A2A2A2A2A2A2A2A2A2A2A2ADC
:100480002A2A2A2A2A2A2A2A0052582041636B65DE
:1004900064202D20726576657274207375636365C0
:1004A000737366756C21002A2A2A2A2A2A2A2A2A84
:1004B0002A2A2A2A2A2A2A2A2A2A2A2A2A2A2A2A9C
:1004C0002A2A2A2A002A2A2A2A2A2A2A2A2A2A2AB6
:1004D0002A2A2A2A2A2A2A2A2A2A2A2A2A2A2A2A7C
:1004E0002A2A0052582041636B6564202D207570C4
:1004F00064617465207375636365737366756C21DD
:10050000002A2A2A2A2A2A2A2A2A2A2A2A2A2A2A75
:100510002A2A2A2A2A2A2A2A2A2A2A2A2A2A005639
:10052000616C69642063686F6963657320617265DB
:100530003A205B315D2D5B31365D20286368616E4A
:100540006E656C20312D31362900536574206F752E
:100550007470757420666F7220706F727420005B07
:10056000585D2061626F7274206368616E676573A5
:1005700020616E64206578697420525820636F6E24
:10058000666967005B535D207361766520736574EF
:1005900074696E677320746F205258005B525D203F
:1005A0007265766572742052582073657474696E32
:1005B000677320746F2064656661756C7473005591
:1005C0007365206E756D62657273205B312D445DBD
:1005D00020746F206564697420706F727473205B7F
:1005E000452D515D20666F722073657474696E6766
:1005F0007300202D20726563656976657220636FD4
:100600006E666967757261746F722C2072782073E0
:100610007720000A0A6F70656E4C52536E67200097
:1006200053657420545820636F6E66696720736544
:100630007269616C2062617564726174653A200050
:100640005365742073657269616C206261756472B0
:100650006174653A200056616C69642063686F6953
:100660006365733A2031202D20342B34202F203223
:10067000202D2038202F2033202D20382B34202FE0
:100680002034202D203132202F2035202D203132D2
:100690002B34202F2036202D203136005365742036
:1006A0004368616E6E656C20636F6E6669673A20A1
:1006B0000053657420446174617261746520283050
:1006C0002D32293A200053657420486F70206368EA
:1006D000616E6E656C7320286D61782032342C2039
:1006E00073657061726174656420627920636F6DF7
:1006F0006D6173292076616C69642076616C756523
:100700007320312D3235353A2000536574206368EB
:10071000616E6E656C2073706163696E6720287806
:1007200031306B487A293A200053657420524620B4
:10073000706F7765722028302D37293A2000536575
:1007400074205246206D61676963202868657829A6
:1007500020652E672E203078444541444630304491
:100760003A2000536574206261736520667265717A
:1007700075656E63792028696E20487A293A2000D1
:100780005B5A5D20656E746572207265636569767B
:10079000657220636F6E66696775726174696F6EEA
:1007A000207574696C79005B465D20646973706CB8
:1007B00061792061637475616C206672657175651D
:1007C0006E636965732075736564005B525D2063B9
:1007D000616C63756C6174652072616E646F6D200D
:1007E0006B657920616E6420686F70206C6973742A
:1007F000005B495D207265696E697469616C697A34
:10080000652073657474696E677320746F20736BF1
:10081000657463682064656661756C7473005B5809
:100820005D20726576657274206368616E676573BA
:1008300020616E642065786974206D656E75005B5B
:10084000535D20736176652073657474696E677398
:1008500020746F20454550524F4D20616E642065D5
:10086000786974206D656E75005B435D20736574F7
:1008700020545820636F6E66696775726174696F82
:100880006E2073657269616C206261756472617457
:100890006500557365206E756D62657273205B30FF
:1008A0002D395D20746F20656469742070617261F8
:1008B0006D657465727300202D2053797374656DB6
:1008C00020636F6E66696775726174696F6E000A86
:1008D0000A6F70656E4C52536E6720005429204990
:1008E0006E7665727465642050504D206F7574701B
:1008F00075743A20005129204F7574707574206208
:1009000065666F7265206C696E6B20283D465329C1
:10091000203A2000502920536C617665206D6F6469
:100920006520286578706572696D656E74616C29E3
:100930003A20004F292054696D65642042494E4495
:10094000206174207374617274757020203A2000E5
:100950004E292050504D206F7574707574206C694D
:100960006D6974656420202020203A20004449539A
:1009700041424C4544004D292050504D2052535384
:100980004920746F206368616E6E656C20202020A2
:100990003A20004C292050504D206D696E696D75CC
:1009A0006D2073796E63202875732920203A20000A
:1009B00044495341424C4544004B29204661696CEF
:1009C0007361666520626561636F6E20696E74761F
:1009D0002E2028312D32353573293A20004A29201E
:1009E0004661696C7361666520626561636F6E2044
:1009F00064656C61792028302D323535203D3E20EC
:100A0000313073202D203135306D696E293A200048
:100A10004929204661696C7361666520626561637E
:100A20006F6E206672712E203A20004829205057A0
:100A30004D2073746F702064656C617920202020D4
:100A40002020203A200047292050504D2073746FF9
:100A5000702064656C6179202020202020203A20BD
:100A6000004629204661696C736166652064656C87
:100A70006179202020202020203A200050574D204E
:100A80006368616E6E656C200066756E6374696F75
:100A90006E3A20002920706F72742000506F7765C5
:100AA00072546F776572004454462055484620338F
:100AB000322D6269742031306368004F70656E4C6E
:100AC00052536E675258206D696E6920342F366319
:100AD0006800466C7974726F6E2F4F72616E676535
:100AE000525820554846203863680052582074797F
:100AF00070653A200044697361626C656400487AED
:100B000000203D3D200043616C63756C6174656439
:100B1000207061636B657420696E74657276616CB8
:100B20003A2000432920545820636F6E736F6C6520
:100B30002062617564726174653A004229204D69D2
:100B400063726F202868616C66292050504D202008
:100B500020203A00412920496E7665727465642030
:100B600050504D20696E20202020203A003029204E
:100B70004D7574652062757A7A657220286D6F7381
:100B8000746C79293A0039292053657269616C20A7
:100B900062617564726174653A00736D617274505C
:100BA0006F7274004672536B79005472616E737089
:100BB0006172656E740044697361626C65640038CB
:100BC000292054656C656D657472793A2020202067
:100BD000202020003729204368616E6E656C2063F9
:100BE0006F6E6669673A202000362920446174617F
:100BF000726174652028302D32293A20202000357A
:100C00002920486F70206368616E6E656C733A20AE
:100C100020202020003429204368616E6E656C20FE
:100C200073706163696E673A202000332920524651
:100C300020706F7765722028302D37293A202020C8
:100C4000003229205246206D616769633A202020D6
:100C50002020202020200031292042617365206659
:100C600072657175656E63793A202020000000007E
:100C7000080002010000030407000000000000005B
:100C80000001020408102040800102040810200125
:100C900002040810200404040404040404020202F0
:100CA00002020203030303030300000000230026E3
:100CB00000290000000000250028002B0000000093
:100CC00000240027002A00005D3211241FBECFEF50
:100CD000D8E0DEBFCDBF13E0A0E0B1E0E0ECFAE683
:100CE00002C005900D92A43EB107D9F726E0A4EE0C
:100CF000B3E001C01D92A03BB207E1F716E0C5E6E4
:100D0000D6E004C02197FE010E940033C436D1070B
:100D1000C9F70E948B320C945E350C9400008091D0
:100D20009D05813021F482E080939D050895809196
:100D30009D05833069F484E080939D050E94A82D71
:100D40006093990570939A0580939B0590939C05F9
:100D50000895DC01ED91FC910190F081E02D099561
:100D600008952091A3053091A405A9015827CA012F
:100D700028E0AC01440F551F97FF06C0CA0131E2BD
:100D8000832730E1932701C0CA01215091F7909346
:100D9000A4058093A3050895CF93DF93C5EAD5E01A
:100DA00089E3888380E092ECA1E0B0E089839A83B4
:100DB000AB83BC8387E08D8780EC92E9ADEEB9E12F
:100DC0008D839E83AF83B88785E08E878DEE9EEFFF
:100DD000ADEABEED89879A87AB87BC8788E1E4EBF3
:100DE000F5E0DF011D928A95E9F786E0ECEBF3E090
:100DF000A4EBB5E001900D928A95E1F782E08FA314
:100E00008AE088A7DF91CF91089580EC91EDA8E961
:100E1000BBE18093EA059093EB05A093EC05B093BA
:100E2000ED0580E092ECA1E0B0E08093EE059093B8
:100E3000EF05A093F005B093F10580E090E0A0E00D
:100E4000B0E58093F2059093F305A093F405B09379
:100E5000F505E6EFF5E080E081938F5F8031E1F703
:100E60000895A0E0B0E0E7E3F7E00C942A33D82F30
:100E70000E94B42D6115710581059105C9F30E9489
:100E8000C6331092AE051092AF051092B0051092C5
:100E9000B105C4E0812C912C54018A94C090AE0518
:100EA000D090AF05E090B005F090B105FE2CED2C90
:100EB000DC2CCC240E94C133A50194010E94E132B4
:100EC000C60ED71EE81EF91EC092AE05D092AF0521
:100ED000E092B005F092B105C15001F7DD2309F4AD
:100EE00057C084EBE82E85E0F82E8701D0E092E32E
:100EF000892E912CA12CB12CF8018081882309F432
:100F000047C0CF5F19F40E94CC0642C00E94C13393
:100F1000A50194010E94E132E1E0E60FA4EBB5E007
:100F20008A2F8E198D1720F48D918E13F9CFE9CF6A
:100F30002091B30530E0A0E1B7E20E9406339B01A7
:100F4000AC01AE2FB0E00E9415334090AA0550903E
:100F5000AB056090AC057090AD05DC01CB01840D54
:100F6000951DA61DB71D4090EA055090EB056090B9
:100F7000EC057090ED05481659066A067B0608F4E4
:100F8000C0CFD801ED938D01DF5FD83109F0B4CF28
:100F9000CDB7DEB7E0E10C94463361E08AE00E9411
:100FA000842E60E08AE00E94C02E0895892B11F003
:100FB00061E001C060E08AE00E94C02E089560E018
:100FC00089E00E94842E61E088E00E94842E61E026
:100FD00087E00E94842E60E082E00E94842E61E01F
:100FE00084E00E94842E089542E050E06FE876E0AD
:100FF00080E00E94F02C0895E3E0F0E089E0809327
:101000005700E491E67081E0E63009F080E0089551
:10101000CF93C82F0E94FC07882379F08FB791E007
:101020009093A205F894A89598E190936000C093DE
:101030006000CC2309F0A8958FBFCF9108955F9AE7
:10104000000083B15F980000869581700895CF936A
:10105000DF935F98D8E080E0C82FCC0F0E941F0874
:101060008C0FD150C9F7DF91CF9108955F988823F5
:1010700019F00000289A02C00000289800005F9A2A
:1010800000000895CF93DF93D82FC8E08D2F80788C
:101090000E943608DD0FC150C9F75F98DF91CF91EC
:1010A0000895CF93DF93D82F5C9A5F985C98C8E03F
:1010B0008D2F80780E943608DD0FC150C9F75F98E8
:1010C000DF91CF910895A1E0B0E0E9E6F8E00C945B
:1010D0003833806869830E9451086981862F0E9495
:1010E00042085C9A2196E2E00C9454338F770E9478
:1010F000510808950E9476080E9427085C9A089576
:10110000CF93C82F60E086E00E94630860E085E02E
:101110000E9463086FE789E00E94630865E08AE047
:101120000E946308C11102C06DEF01C067E18DE04C
:101130000E946308C11102C06AE001C064E184E357
:101140000E94630860E08EE00E94630862E18BE029
:101150000E94630865E18CE00E9463086CE880E30C
:101160000E9463086FE082E30E94630862E483E305
:101170000E9463086AE285E30E9463086DE286E3E9
:101180000E94630864ED87E30E94630860E088E3DF
:101190000E94630860E089E30E9463086FEF83E4C4
:1011A0000E9463086FEF84E40E9463086FEF85E498
:1011B0000E9463086FEF86E40E94630860E083E7A3
:1011C0000E94630860E084E70E94630860E089E7AA
:1011D0000E946308CF910895CF93C82F811102C058
:1011E00063E001C063E888E00E946308C11102C0A7
:1011F00060E001C060E888E00E946308CF91089534
:1012000083E00E947A0884E00E947A080895CF92D1
:10121000DF92FF920F931F93CF93DF931F92CDB76F
:10122000DEB7082F162F8EE399830E946308F02EF5
:10123000C02E9981D92E8C2D8F19811738F4F60183
:1012400061916F018FE70E946308F5CF64E085E04C
:101250000E9463080F90DF91CF911F910F91FF9033
:10126000DF90CF9008958CE00E947A08089586E27E
:101270000E947A0808958BE40E947A080895CF921C
:10128000DF92FF920F931F93CF93DF931F92CDB7FF
:10129000DEB7182F062F8FE799830E947608F12E6C
:1012A000C12E9981D92E8C2D8F19801730F40E9470
:1012B0002708F60181936F01F6CF0F90DF91CF9150
:1012C0001F910F91FF90DF90CF90089569E087E024
:1012D0000E94630888EC90E00E94152E089562E059
:1012E00085E00E94630865E087E00E94630888EC5F
:1012F00090E00E94152E0895CF92DF92EF92FF9218
:10130000CF93DF936B017C01C11488E3D8068CE98D
:10131000E8068CE1F80648F5C701B60120E836E991
:1013200048E950E00E94BF32E901689760E879E639
:1013300087E69FEF0E949B32DC01CB018C0D9D1D47
:10134000AE1DBF1DBC01CD0132E0660F771F881FA7
:10135000991F3A95D1F721E732E040E050E00E9432
:10136000BF32F22EE32E80E425C0C701B60120E093
:101370003DE241E351E00E94BF32E901689760E03D
:1013800073ED8EEC9EEF0E949B32DC01CB018C0D45
:101390009D1DAE1DBF1DBC01CD01660F771F881FAF
:1013A000991F21E732E040E050E00E94BF32F22E68
:1013B000E32E80E66C2F6F71680F85E70E9463084B
:1013C0006E2D86E70E9463086F2D87E70E946308F1
:1013D00088EC90E00E94152EDF91CF91FF90EF9066
:1013E000DF90CF900895682F89E70E9463080895E1
:1013F000CF93DF93C82FD62F8AE38C0F0E94630808
:101400006D2F8FE38C0F0E946308DF91CF910895B9
:10141000CF93DF93EC016C818CE10E9463086D81B6
:101420008DE10E9463086E818EE10E9463086F81E6
:1014300080E20E946308688581E20E9463086985F2
:1014400082E20E9463086A8583E20E9463086B85DA
:1014500084E20E9463086C8585E20E9463086D85C2
:101460008AE20E9463086E858EE60E9463086F859B
:101470008FE60E946308688980E70E946308698993
:1014800081E70E9463086A8982E70E946308DF910E
:10149000CF910895682F8DE60E94630889E190E05E
:1014A0000E94152E089561E087E00E946308089568
:1014B000682F8AE70E94630808958F929F92AF92E7
:1014C000BF92CF92DF92EF92FF92CF93FC01C0A523
:1014D000EC2FE770F0E0EC57FC4FA0812A2F30E0B2
:1014E000C7FD03C0AFE0B0E002C0A4E1B0E0FC0182
:1014F00097A183E1989FF0011124E45CFE4F808066
:101500009180A280B380A20FB31F20E43FE14DE79A
:1015100050E00E942033A50194010E94BF328C2F1D
:10152000887139F4DA01C9018053984FAF4FBF4F2A
:101530001DC0C7FD05C060E07EEE8AEB9BE004C0E5
:1015400060E47AE88CE29EE069017A01E8EBCE0E75
:10155000EBE0DE1EE11CF11CA50194010E94BF32EC
:10156000D701C601820F931FA41FB51FBC01CD0177
:1015700069517C4F8F4F9F4F28EE33E040E050E0A1
:101580000E94BF32A8EEB3E00E941533CF91FF90C6
:10159000EF90DF90CF90BF90AF909F908F90089585
:1015A0008F3F910551F048F0811522E0920738F005
:1015B0008115934030F083E0089580E0089581E044
:1015C000089582E00895A0E0B0E0E9EEFAE00C941E
:1015D0003233EB01682F66959A0150E079012B5F59
:1015E0003F4F651780F1A881B981F9013597A08334
:1015F000AA81BB813196A083AC81BD813196A08345
:10160000AE81BF813196A083E880F9800A811B8179
:10161000AC81BD81CE80DF8031964D2D4295440F47
:10162000440F407C9F2D9370942B412F4370440FA7
:10163000440F942B4B2F43704295407F942B908303
:1016400028965F5FCBCF80FF23C0888199810E945D
:10165000D00A082F8A819B810E94D00A20E4029F31
:1016600080011124E0E18E9FC0011124082B8C81A0
:101670009D810E94D00A182F8E819F810E94D00ADE
:10168000802BF4E01F9F90011124282BF701208369
:10169000CDB7DEB7E8E00C944E33803223E09207FA
:1016A00008F1883E23E0920740F48F51934034E0E4
:1016B000969587953A95E1F70895803D27E0920742
:1016C00018F48C5D93400895883928E0920768F4F7
:1016D000885C974024E0969587952A95E1F78D5090
:1016E0009C4F089580E090E008958FEF93E0089577
:1016F00025E0AC01249FC001259F900D112423E01B
:10170000969587952A95E1F780599C4F0E944D0B3D
:101710000895A0E0B0E09C01AD012C5C31094109C5
:101720005109A8EEB3E00E94153327E636E040E009
:1017300050E00E94E132DA01C90188519C4FAF4F5D
:10174000BF4F0E944D0B08958C30910540F434E05A
:10175000880F991F3A95E1F7885D9C4F0895843F63
:1017600023E0920718F484529C4F0895811524E0D9
:10177000920740F48657934F24E0880F991F2A95CB
:10178000E1F7089580E998E008959C013695279542
:1017900025753575821B930B9C01237333739695C6
:1017A00087959695879583739373820F931F9C01FA
:1017B00064E0369527956A95E1F7820F931F8F7045
:1017C0009F7041E051E0849F9001859F300D949F70
:1017D000300D1124832F08958436910520F4BC0127
:1017E00080E090E017C09C018E3B910528F42A55BB
:1017F0003109AAE0B0E00CC0823D910528F4245BD9
:101800003109A4E6B0E004C02D5C3109A8E5B2E0DE
:101810000E940633A4E6B0E09B01AC010E941533A0
:10182000089590E08C599F4F0E94EC0B0895CF9241
:10183000DF92EF92FF92CF93DF93D82F0E94530A4B
:1018400088E592E00E94152E0E9400098091CD0546
:1018500080780E9480088091B3050E94580AD111B7
:1018600009C0C090AE05D090AF05E090B005F090F3
:10187000B10507C025EAC22E21ECD22EED2C2EEDAB
:10188000F22EC0E06F2D7727882799278C2F0E9492
:10189000F809FE2CED2CDC2CCC24CF5FC43091F762
:1018A000DD2361F089E291E00E94080A86E00E944F
:1018B0004A0A60EC72E98DEE99E116C08091CC0580
:1018C00023E1829FC0011124845C9E4F0E94080A7C
:1018D0008091B2050E944A0A6091AA057091AB05F9
:1018E0008091AC059091AD050E947C09DF91CF916C
:1018F000FF90EF90DF90CF9008950E94B42D6093F9
:101900009E0570939F058093A0059093A10581E0AB
:1019100080939D050E94660908958091CD05807889
:101920000E94EC080E94000983E080939D050E94BC
:101930006F0908950E94330981110DC060EA71E0BA
:1019400081E196E00E94B52F2D9A80E00E94170C4D
:101950000E948D0C2D980895CF93C82F6091AE05ED
:10196000682783E00E94F809EC2FF0E0EB55FA4F6E
:1019700087850E94F309CF9108950E9407090E946C
:1019800000090E947D0C08950F931F930E94BD0CC7
:1019900080919D058130A9F40E94B42D00919E058F
:1019A00010919F052091A0053091A105DC01CB018C
:1019B000801B910BA20BB30B803A9648A140B10556
:1019C00038F31F910F9108950F931F9380919D05F8
:1019D000823021F410929D0581E01EC080919D050A
:1019E0008130C9F40E94B42D00919E0510919F058D
:1019F0002091A0053091A105DC01CB01801B910B4A
:101A0000A20BB30B813A9648A140B10520F0109289
:101A10009D0582E001C080E01F910F9108950F9312
:101A20001F93CF93DF93EC018B01672BC1F04AE04A
:101A300050E06D2F70E0C8010E947D306EE2C80159
:101A40000E94962F84E0D695C7958A95E1F7BE014E
:101A50006F7077274AE050E0C8010E947D30DF9127
:101A6000CF911F910F91089561E176E00E940F0DD3
:101A70000895D82FC0E0CD1781F02D9A64E670E06C
:101A800080E090E00E94D92D2D9864E670E080E01F
:101A900090E00E94D92DCF5FEECF6CE271E080E044
:101AA00090E00E94D92DE6CF0F931F93CF93DF9341
:101AB0008C01D62FC5E0C15051F0C8010E944835B5
:101AC000D81741F06D2FC8010E945035F4CF82E045
:101AD0000E94390DDF91CF911F910F910895A0E0E1
:101AE000B0E0E5E7FDE00C942A33482E562E00E0E6
:101AF00010E0612C712CC12CD12CE12CF12C411067
:101B00000EC0609007068AE4689E300111247DE1D2
:101B1000C72ED12CE9EEEE2EE5E0FE2E22C091E09C
:101B2000491211C0609007068AE4689E30011124B2
:101B30009FE1690E711C59E2C52ED12C65EAE62E93
:101B400065E0F62E0EC082E048120BC028E2622E3D
:101B500077247394CC24C394D12C46E0E42E46E041
:101B6000F42E4301800E911E1092A4051092A3053D
:101B70003401C62DC819D0E0C30101965C01CC1513
:101B8000DD0590F4CE0DDF1D511005C0C3010E948C
:101B90004835888304C06881C3010E94540D888140
:101BA0000E94B1063501E5CFC301511018C0C30131
:101BB0000E944835C82FC5010E9448352C2F30E0BF
:101BC000322F2227282B8091A3059091A4058217FC
:101BD000930779F400E010E05524539490CF350139
:101BE0006091A4050E94540D6091A305C5010E9457
:101BF000540D005D1E4F013D92E0190708F47FCFA0
:101C0000852DCDB7DEB7E0E10C94463361E082E08C
:101C10000E946F0D089560E082E00E946F0D809138
:101C20000606853020F0109206060E94060E80916E
:101C3000060680930706089561E080E00E946F0D1C
:101C400061E081E00E946F0D089560E080E00E94F5
:101C50006F0D882351F060E081E00E946F0D8823B2
:101C600021F08091A505893349F00E9405070E9463
:101C7000CC0681E00E9431070E941C0E089581115C
:101C800003C066EB71E002C062EB71E081E196E0B7
:101C90000E94B52F0895EF92FF921F93CF93DF9389
:101CA00067E57CE081E196E00E94712F4091AA05F2
:101CB0005091AB056091AC057091AD052AE030E024
:101CC00081E196E00E94843061E47CE081E196E06D
:101CD0000E94712F4091AE055091AF056091B00503
:101CE0007091B10520E130E081E196E00E948430FE
:101CF0006BE27CE081E196E00E94712F4AE050E0C7
:101D00006091B20581E196E00E94AC3065E17CE033
:101D100081E196E00E94712F4AE050E06091B305A6
:101D200081E196E00E94AC306FEF7BE081E196E0CC
:101D30000E94712FC4EBD5E010E07E0188818823DA
:101D4000A1F0112331F069EB71E081E196E00E948E
:101D5000932F21964AE050E0F701608181E196E0FF
:101D60000E9475301F5F183141F781E196E00E94B3
:101D70009E2F69EE7BE081E196E00E94712F4AE0A0
:101D800050E06091CC0581E196E00E94AC3064EDBA
:101D90007BE081E196E00E94712FE091CD05E77034
:101DA000F0E0EE0FFF1FE457FC4F6081718181E18D
:101DB00096E00E94B52F6FEB7BE081E196E00E94F8
:101DC000712F8091CD058871883069F028F48111D8
:101DD00013C066EB7BE00CC0803141F0883161F4C8
:101DE0006AE97BE005C06AEA7BE002C064EA7BE066
:101DF00081E196E00E94A32F66E87BE081E196E016
:101E00000E94712F4091A6055091A7056091A805E9
:101E10007091A9052AE030E081E196E00E948430CB
:101E20006DE67BE081E196E00E94712F8091F205E2
:101E300080710E943F0E64E57BE081E196E00E94A4
:101E4000712F8091F20580740E943F0E6BE37BE05E
:101E500081E196E00E94712F8091F20580720E94CC
:101E60003F0E63E27BE081E196E00E94712F40919A
:101E7000EE055091EF056091F0057091F1052AE0B3
:101E800030E081E196E00E94843066E07BE081E111
:101E900096E00E94712F85EA95E00E945D0AAB01F1
:101EA000BC012AE030E081E196E00E94663061E00A
:101EB0007BE081E196E00E94712F85EA95E00E9427
:101EC0005D0A9B01AC0160E472E48FE090E00E9447
:101ED000BF32BA01A9012AE030E081E196E00E9418
:101EE00066306EEF7AE081E196E00E94A32FDF91E9
:101EF000CF911F91FF90EF9008958F929F92AF9294
:101F0000BF92CF92DF92EF92FF92811107C065EFEF
:101F10007AE081E196E00E94A32F2FC090E00E941A
:101F2000EC0B24E630E040E050E00E94BF32CA01F2
:101F3000B9012AE030E040E050E00E94BF324901A0
:101F40005A016B017C012AE030E0B501A40181E176
:101F500096E00E9466306EE281E196E00E94962F44
:101F60002AE030E0B701A60181E196E00E946630E8
:101F700063E781E196E00E94C72FFF90EF90DF902A
:101F8000CF90BF90AF909F908F9008951F93CF9365
:101F9000DF936BEE7AE081E196E00E94712F8091F1
:101FA000CE05813041F462ED7AE081E196E00E9455
:101FB000A32F10E050C0823019F46BEB7AE0F5CF1C
:101FC000843019F467EA7AE0F0CF853091F76CE954
:101FD0007AE0EBCFC12FD0E0C930D1050CF441C07D
:101FE00068E3610F81E196E00E94962F64E97AE050
:101FF00081E196E00E94712FBE016F5F7F4F4AE042
:1020000050E081E196E00E94473069E87AE081E1A2
:1020100096E00E94712FC253DA4FE981E03218F541
:102020006CE77AE081E196E00E94712F898180312E
:1020300030F067E773E081E196E00E94932F6981B9
:102040006F7070E06F5F7F4F4AE050E081E196E093
:102050000E944F301F5F80917505181708F4BACFA2
:102060000FC061E3BECFEF70F0E0EE0FFF1FE4564C
:10207000FC4F6081718181E196E00E94B52FEACF2B
:1020800061E67AE081E196E00E94712F8091E60599
:102090000E947D0F66E47AE081E196E00E94712F54
:1020A0008091E7050E947D0F6BE27AE081E196E086
:1020B0000E94712F8091E8050E947D0F60E17AE017
:1020C00081E196E00E94712F4091DE055091DF057D
:1020D0006091E0057091E1054115510561057105BB
:1020E00039F12AE030E081E196E00E9484306DED24
:1020F00079E081E196E00E94712F8091E2050E94D3
:10210000110CAB01BC012AE030E081E196E00E94B5
:10211000843069EB79E081E196E00E94712F4AE01A
:1021200050E06091E30581E196E00E94AC3006C08A
:1021300060EB79E081E196E00E94A32F63E979E00A
:1021400081E196E00E94712F6091E4057091E505B0
:102150004AE050E081E196E00E94963066E779E03F
:1021600081E196E00E94712F6091DD05603450F4AA
:1021700070E06F5F7F4F4AE050E081E196E00E949F
:102180004F3006C06DE679E081E196E00E94A32F12
:1021900060E579E081E196E00E94712F8091DC0595
:1021A00080FD03C06FEB71E002C06BEB71E081E179
:1021B00096E00E94B52F63E379E081E196E00E940A
:1021C000712F8091DC0582700E943F0E64E179E0FE
:1021D00081E196E00E94712F8091DC0584700E945D
:1021E0003F0E65EF78E081E196E00E94712F8091CB
:1021F000DC0588700E943F0E6CED78E081E196E08E
:102200000E94712F8091DC0580740E943F0EDF9147
:10221000CF911F9108950F931F93CF93DF938091D8
:1022200072058F3FA9F563E176E081E196E00E94B7
:10223000712F80E993E00E94340D62EF75E081E137
:1022400096E00E94712F80917305909174050E9411
:10225000340D6FEB75E081E196E00E94A32F6CE9ED
:1022600075E081E196E00E94A32F64E875E081E1CA
:1022700096E00E94A32F6FE575E081E196E00E9451
:10228000A32F81E196E00E949E2F0E94C60F68C096
:1022900018160CF065C0082E000C990B20917505DE
:1022A00030E0281739070CF45BC06AE475E081E17F
:1022B00096E00E94712F60917205062E000C770B3C
:1022C0004AE050E081E196E00E944F306FE175E016
:1022D00081E196E00E94712F10E008E2809176057E
:1022E0001817D0F5C12FD0E0CC0FDD1FC958DA4F39
:1022F000288130E080917205082E000C990B01971F
:102300002817390739F563EC71E081E196E00E9406
:10231000932F4AE050E0602F81E196E00E947530F3
:1023200067EC71E081E196E00E94932FE981EF7004
:10233000F0E0EE0FFF1FE456FC4F6081718181E1F8
:1023400096E00E94932F6BEC71E081E196E00E9491
:10235000932F0F5F1F5FC2CF81E196E00E949E2FF7
:10236000DF91CF911F910F910895CF92DF92EF925D
:10237000FF921F93CF93DF93C4EBD5E010E07E0173
:1023800088818823C9F16DEC71E081E196E00E94BB
:10239000932F4AE050E0612F81E196E00E94753072
:1023A0006AED71E081E196E00E94932F2196F7019A
:1023B000208130E0A0E1B7E20E9406339B01AC012E
:1023C000A091B305B0E00E941533C090AA05D0904B
:1023D000AB05E090AC05F090AD05AB01BC014C0D38
:1023E0005D1D6E1D7F1D2AE030E081E196E00E94B8
:1023F00084301F5F183119F6DF91CF911F91FF9044
:10240000EF90DF90CF90089510920C0585E6EDE0F7
:10241000F5E0DF011D928A95E9F70895CF93C82F63
:102420008F3719F0883009F045C0E0910C05EE2394
:10243000D9F1E150E0930C05F0E0E35FFA4F108230
:102440006DE070E081E196E00E94A906C0E0809115
:102450000C05C81760F4EC2FF0E0E35FFA4F6081E1
:1024600070E081E196E00E94A906CF5FF0CF60E2C4
:1024700070E081E196E00E94A9066DE070E081E1E4
:1024800096E00E94A906C0E080910C05C81778F577
:10249000EC2FF0E0E35FFA4F608170E081E196E0BD
:1024A0000E94A906CF5FF0CF67E081E196E00E942D
:1024B000962F1DC08B3119F40E9404121AC08D3062
:1024C000C1F08A30B1F080910C05843668F76C2F2A
:1024D00070E081E196E00E94A906E0910C0581E0A0
:1024E0008E0F80930C05F0E0E35FFA4FC08380E02D
:1024F00001C081E0CF910895EF92FF921F93CF9397
:10250000DF931F92CDB7DEB77C01162F49830E945F
:10251000B42D6093F3047093F4048093F5049093C6
:10252000F604F0920905E092080510930A05498126
:1025300041110FC0111105C040E855E260E070E0A4
:1025400004C040E051EE60E070E026E0C7010E9468
:1025500096310F90DF91CF911F91FF90EF900895EA
:102560009091F704292F2F7030E0B9016F5F7F4FF2
:10257000492F50E0E4E055954795EA95E1F7641757
:10258000750759F0F901E850FB4F808381E0890F0E
:102590008F70907F982B9093F7040895A0E0B0E09F
:1025A000E4EDF2E10C9433338C016EE770E080913E
:1025B0000805909109050E94A906E801075F1F4FD1
:1025C00080E2D82E7E0188818D57823058F46DE7E5
:1025D00070E080910805909109050E94A906888104
:1025E0008D25888380910805909109052196DC014D
:1025F000ED91FC910190F081E02DD7016C9109954E
:10260000C017D107F9F66EE770E080910805909148
:1026100009050E94A906CDB7DEB7E7E00C944F3359
:10262000A9E0B0E0E6E1F3E10C9438339091F204D4
:1026300091110EC09EEF99838A836B8350E055956C
:1026400047954C832D83198618861F821E822EC0C3
:102650008091F704482F50E064E0559547956A95BE
:10266000E1F7282F2F7030E04217530719F19DEF43
:1026700099831B82FE01349690E0282F30E044E0DD
:10268000359527954A95E1F7482F4F7050E024176C
:10269000350749F0D901A850BB4F2C912193805F99
:1026A0009F5F963051F78093F7049A83CE0101968D
:1026B0000E94CE128091F20490E0019666E070E0F4
:1026C0000E94AB328093F2042996E2E00C945433DA
:1026D000A0E0B0E0EEE6F3E10C9431337C016EE76C
:1026E00070E080910805909109050E94A906870174
:1026F000C12CD12CC0E0D0E090E2B92EF80160816D
:1027000023E8260F8091080590910905223078F47E
:102710006DE770E00E94A906D8016C916B2570E00E
:1027200080910805909109050E94A90607C0DC0167
:10273000ED91FC910190F081E02D0995C114D10437
:1027400049F0F8018081C80FD11D8D2F9927C80F3E
:10275000D91FDD27FFEFCF1ADF0A89E0C816D104A1
:1027600061F088E0C816D10429F48C2F8095D70138
:1027700018968C930F5F1F4FC1CFCDB7DEB7E9E03E
:102780000C944D336EE770E0809108059091090537
:102790000E94A9060895A9E0B0E0E1EDF3E10C94F0
:1027A0003733182F362FE091F204F0E0CF01019675
:1027B00064E270E00E94AB328093F20458E95983DE
:1027C00050E15A83813089F048F08230B9F083308B
:1027D000D9F48B8381EF8C833D8319C085E08B8393
:1027E00081EF8C832F5F2D8312C08B8381EF8C83CD
:1027F00084E6489FA00111245D8309C084E08B8397
:1028000081EF8C831D8303C00E94C21304C0CE01DC
:1028100001960E9468132996E3E00C945333A2E0DA
:10282000B0E0E5E1F4E10C942D33182F762E2A83E5
:1028300049830E94B42D6B017C0130910A0580917F
:10284000F3049091F404A091F504B091F6042A8168
:10285000498146015701881A990AAA0ABB0A3323FB
:1028600081F031EE83163EE29306A104B104E0F05C
:10287000241708F4422F202F672D812F0E94CB139D
:102880000BC031E3831635E79306A104B10460F071
:10289000672D812F0E941013C092F304D092F4048C
:1028A000E092F504F092F6042296EDE00C944933A0
:1028B0002F923F924F925F927F928F929F92AF9210
:1028C000BF92CF92DF92EF92FF920F931F93CF931D
:1028D000DF93CDB7DEB7C351D1400FB6F894DEBF5A
:1028E0000FBECDBF94EBC92E95E0D92EF601F12C89
:1028F0008191882321F0F39428E1F212F9CF6EED53
:1029000071E081E196E00E94B52F4AE050E06F2D22
:1029100081E196E00E94AC3080E00E94170C0E949A
:102920008D0C8E010E5F1F4F812C912C54018394CE
:10293000EE24EA94782C0E94A82D1B012C012091F2
:10294000B30530E0A0E1B7E20E9406339B01AC0181
:10295000C501B4010E949B322091AA053091AB05BC
:102960004091AC055091AD05DC01CB01820F931F66
:10297000A41FB51F2091EA053091EB054091EC05AD
:102980005091ED05281739074A075B0718F4F8013D
:10299000E08227C0882D0E94AC0C61E070E080E0EE
:1029A00090E00E94D92DF80110820E94A82DDC0130
:1029B000CB0182199309A409B509843F9140A1056F
:1029C000B10540F40E943709F8019081981768F723
:1029D0008083EBCF70FE03C02C982D9A02C02C9AF6
:1029E0002D982FEF821A920AA20AB20A0F5F1F4F88
:1029F0008FEF88169104A104B10409F09BCF8E01DA
:102A00001395F801B02E5FEF48EC8E2F801B8F15C9
:102A1000C8F5DE01129631E08FEF21E09D91981705
:102A200010F4892F232F3F5F3F3FC1F72193822F5F
:102A300090E0A1E0B0E0AC0FBD1FA80FB91F3C9320
:102A4000213079F0DE01A80FB91F3C93223049F004
:102A5000AFEFBFEFAC0FBD1FA80FB91F4C932E3FB8
:102A6000A0F6A2E0B0E0AC0FBD1FA80FB91F5C93A9
:102A70002D3F58F6A3E0B0E0AC0FBD1FA80FB91F63
:102A80004C93C3CF91E09F15D8F4892F282F30E0C5
:102A9000F801E20FF31F4081AFEFB0E0AC0FBD1FB4
:102AA000A20FB31F2C91421748F48150D801A80FF0
:102AB000B11D2C9120834C938111E8CF9F5FE3CF10
:102AC0009F2D969580E0891770F4D801A80FB11D4D
:102AD0002C91382F390FF801E30FF11D30813C9311
:102AE00020838E5FF0CF802F8B198F1598F4F8011B
:102AF000E1908F014AE050E06E2D81E196E00E9466
:102B000075306CE281E196E00E94962FF601E19229
:102B10006F01E9CF81E196E00E949E2F81E0CD5EBA
:102B2000DE4F0FB6F894DEBF0FBECDBFDF91CF9161
:102B30001F910F91FF90EF90DF90CF90BF90AF90DB
:102B40009F908F907F905F904F903F902F9008952F
:102B50001F920F920FB60F9211240F931F932F9372
:102B60003F934F935F936F937F938F939F93AF9315
:102B7000BF93CF93EF93FF938091F2059091F3056C
:102B8000A091F405B091F50549B18C019D01007447
:102B900011272227332743FB442740F950E060E008
:102BA00070E0041715072607370709F468C020915D
:102BB000840030918500109285001092840040912D
:102BC000D00441115CC085FD02C036952795253C97
:102BD00049E03407B8F14091050150E060E070E051
:102BE000ECE1B695A79597958795EA95D1F700976B
:102BF000A105B10521F481E090E0A0E0B0E08417E8
:102C00009507A607B707D8F4809105018F3FB9F063
:102C100020E080910501281780F4822F90E0880F32
:102C2000991FFC01E055FB4F40815181FC01E95F98
:102C3000FE4F518340832F5FECCF1092060110921C
:102C400005011DC02D3B82E03807B0F080910501E1
:102C5000803190F4C091050181E08C0F80930501D3
:102C6000C9010E944D0BEC2FF0E0EE0FFF1FE05565
:102C7000FB4F9183808303C08FEF80930501FF9109
:102C8000EF91CF91BF91AF919F918F917F916F9174
:102C90005F914F913F912F911F910F910F900FBE18
:102CA0000F901F901895809104018823D1F0809196
:102CB000270190912801DC01ED91FC910084F185C0
:102CC000E02D0995892B61F08091270190912801D1
:102CD000DC01ED91FC910284F385E02D0995E7CFAD
:102CE00008958091D004882311F308958091040100
:102CF000811104C08091D00481110CC08091270102
:102D000090912801DC01ED91FC910084F185E02D8A
:102D10000995089580E090E0089580910401811163
:102D200004C08091D00481110CC080912701909142
:102D30002801DC01ED91FC910284F385E02D0995D9
:102D400008958FEF9FEF089520910401211104C091
:102D50002091CD05287141F4BC018091270190910B
:102D600028010E94932F089580E090E00895CF936A
:102D7000DF930E940B0E80910706843021F585E0D9
:102D80000E94F02EC1E0D0E0892B11F4C0E0D0E029
:102D900086E00E94F02E009711F082E090E08C2BEC
:102DA0009D2B8230910539F08330910539F00197E0
:102DB00039F481E006C01092070605C082E001C028
:102DC00083E080930706DF91CF9108954091A60597
:102DD0005091A7056091A8057091A905DB01CA0172
:102DE0000197A109B1090597A105B10518F4409310
:102DF000D00402C01092D0049091D004E091270139
:102E0000F0912801933011F0953031F42EE240EA30
:102E100056E861E070E00BC08FEF890F26E082304A
:102E200010F0943021F440E052EC61E070E0CF010A
:102E30000E94963108958091D00481111DC0809127
:102E4000D104811119C083E0809380008AE18093CE
:102E500081008FEF9FEF90938900809388001092FC
:102E60006F0088E080936D0080916800846080939B
:102E7000680081E08093D1040895CF93DF930E948E
:102E8000250ED0910706C0E062E370E080E090E09C
:102E90000E94D92D80ED97E00E94D60762E370E092
:102EA00080E090E00E94D92D80E090E00E94D6075B
:102EB000CF5FDC1748F70E94E6160E941B1710929E
:102EC000F0048091F20583FF11C08091BA05882338
:102ED00051F08091C105882331F08091C805882385
:102EE00011F087E001C085E08093F0049091CD055A
:102EF000892F887191F094FF10C041E09091D00427
:102F0000911101C040E061E0883109F060E08091FA
:102F10002701909128010E947C1280E00E94170CEA
:102F20008091F1040E94AC0C0E948D0C8FE00E94F5
:102F30000808DF91CF9108950F931F932091A90462
:102F40009FEF920F943008F530E021503109409105
:102F5000070650E024173507C1F08823C1F00E940E
:102F6000A82D0091A3041091A4042091A5043091F0
:102F7000A604AB01BC01401B510B620B730B81E03B
:102F8000483853416105710518F480E001C081E0C3
:102F90001F910F9108956F3018F08695805808950D
:102FA00089E0689F802D11240895A0E0B0E0EBED4A
:102FB000F7E10C943133C82F0E94B42D00915404D2
:102FC0001091550420915604309157046B017C01F7
:102FD000C01AD10AE20AF30A9701860149E8C41629
:102FE00043E1D406E104F10410F010925804609318
:102FF0005404709355048093560490935704209181
:10300000D0048FEF820F823008F042C0E091580464
:10301000EE2309F482C1E13021F482E08093580468
:1030200046C3E03108F036C381E08E0F8093580428
:10303000F0E0E055FB4FC083803109F038C3A0EBCE
:10304000B4E037E0213049F41396EC911397E695FC
:10305000E69512968C9112970AC012968D919C91CA
:103060001397E92FE695E695E69596958795E031D5
:1030700040F4F0E090E0EE0FFF1FE95FFE4F918318
:10308000808310920601315012963111DBCF0FC3AD
:10309000233009F032C1E0915804E11119C0CF305A
:1030A00009F020C10E94A82D0091DE041091DF04D8
:1030B0002091E0043091E104DC01CB01801B910BF5
:1030C000A20BB30B0297A105B10508F0EAC20AC131
:1030D000E83148F481E08E0F80935804F0E0E15528
:1030E000FB4FC083FFC0E83109F0FAC0C111F8C03E
:1030F000C12CD12CFBE0BF2EE601E3E0CC0FDD1F9D
:10310000EA95E1F7BC9C8001BD9C100D1124F801EB
:10311000E055FB4F9181808197700E94780BFE01F2
:10312000EE0FFF1FE95FFE4F918380837E018FEFDB
:10313000E81AF80AF801EF54FB4F808186958695CE
:1031400086959181292F2295220F207E969596951E
:103150009695822B97700E94780BF701EE0FFF1F58
:10316000E95FFE4F918380837E01E2E0EE0EF11C69
:10317000F801EE54FB4F8081829586958695837089
:103180009181392F330F330F292F229526952695BC
:10319000237092819170990F990F832B922B0E942B
:1031A000780BF701EE0FFF1FE95FFE4F91838083DD
:1031B0007E01F3E0EF0EF11CF801EC54FB4F80812F
:1031C00086959181292F2795222727959695822BE1
:1031D00097700E94780BF701EE0FFF1FE95FFE4F1B
:1031E000918380837E0144E0E40EF11CF801EB54EE
:1031F000FB4F808182958F709181292F2295207FAE
:1032000092959F70822B97700E94780BF701EE0FBA
:10321000FF1FE95FFE4F918380837E0185E0E80E0A
:10322000F11CF801EA54FB4F8081881F8827881F12
:103230009181392F330F292F221F2227221F92819C
:103240009370990F832B922B0E94780BF701EE0F4E
:10325000FF1FE95FFE4F918380837E01E6E0EE0E63
:10326000F11CF801E854FB4F808186958695918189
:10327000292F2295220F220F207C96959695822B3E
:1032800097700E94780BF701EE0FFF1FE95FFE4F6A
:10329000918380832796F801E754FB4F80818295C4
:1032A000869587709181292F220F220F220F822B62
:1032B0009295969597700E94780BCC0FDD1FC95F91
:1032C000DE4F99838883F1E0CF16D10421F0CC241E
:1032D000C394D12C11CF8091C60483FF10920601B4
:1032E000109258040E94A82D6093DE047093DF04AE
:1032F0008093E0049093E104DAC1243009F07DC0AA
:103300002091580421110BC0C83AB1F41092A405C1
:103310001092A30588EA0E94B10681E07FCE213099
:1033200019F4C093530404C0223031F4C093520402
:103330008C2F0E94B1065AC060915204862F90E0F3
:10334000880F991F422F50E0FC013296E417F507D1
:103350003CF0233268F7FA01E355FB4FC083E8CF16
:103360009C012D5F3F4F8C2F90E0E091A305F091E1
:10337000A4054217530749F4982F88278E279F27C3
:103380009093A4058093A30531C0E817F90761F570
:1033900080915304813041F5613118F080E18093D0
:1033A0005204F090520400EB14E0C0E0D0E0CF15DE
:1033B000C8F4F801808190E0982F88272181822B22
:1033C00033E0969587953A95E1F70E944D0BFE0103
:1033D000EE0FFF1FE95FFE4F9183808321960E5F02
:1033E0001F4FE5CF109206011092580480915804A7
:1033F000882309F45CC18F5F11CE253009F057C1D5
:1034000090915804911104C0C53509F050C185CF81
:10341000913041F48C2F8F718B3109F03BC1C093F7
:10342000AD04FBCD943030F4E92FF0E0E455FB4FD0
:10343000C08333C19A3108F02DC1E92FF0E0E45583
:10344000FB4FC083993109F028C10E94A82D20911B
:10345000AD04322F331F3327331F3093AC0426FBC8
:10346000332730F93093AB0425FB222720F9209332
:10347000AA042091A9044091AE04342F3F703093E8
:10348000A904321741F06093A3047093A4048093BD
:10349000A5049093A604842F881F8827881F8093F3
:1034A000A8048091AF048093A704C12CD12CDBE049
:1034B000BD2EE60183E0CC0FDD1F8A95E1F7BC9CB1
:1034C0008001BD9C100D1124F801E055FB4F918146
:1034D000808197700E94890BFE01EE0FFF1FE95F4C
:1034E000FE4F918380837E014FEFE41AF40AF801C6
:1034F000EF54FB4F80818695869586959181292F83
:103500002295220F207E969596959695822B977000
:103510000E94890BF701EE0FFF1FE95FFE4F9183B9
:1035200080837E0182E0E80EF11CF801EE54FB4F2F
:10353000808182958695869583709181392F330F8E
:10354000330F292F2295269526952370928191700D
:10355000990F990F832B922B0E94890BF701EE0F85
:10356000FF1FE95FFE4F918380837E01E3E0EE0E53
:10357000F11CF801EC54FB4F808186959181292F35
:103580002795222727959695822B97700E94890B65
:10359000F701EE0FFF1FE95FFE4F918380837E01ED
:1035A000F4E0EF0EF11CF801EB54FB4F80818295A3
:1035B0008F709181292F2295207F92959F70822B69
:1035C00097700E94890BF701EE0FFF1FE95FFE4F16
:1035D000918380837E0145E0E40EF11CF801EA54FA
:1035E000FB4F8081881F8827881F9181392F330FD7
:1035F000292F221F2227221F92819370990F832B3C
:10360000922B0E94890BF701EE0FFF1FE95FFE4F1F
:10361000918380837E0186E0E80EF11CF801E85476
:10362000FB4F8081869586959181292F2295220FC7
:10363000220F207C96959695822B97700E94890B7D
:10364000F701EE0FFF1FE95FFE4F918380832796FE
:10365000F801E754FB4F80818295869587709181B0
:10366000292F220F220F220F822B92959695977069
:103670000E94890BCC0FDD1FC95FDE4F99838883C1
:10368000E1E0CE16D10421F0CC24C394D12C11CF8B
:1036900010920601109258040AC09F5F909358043C
:1036A00006C0809158048F5F809358041BCECDB71D
:1036B000DEB7E9E00C944D33809127019091280109
:1036C000DC01ED91FC910084F185E02D0995892BB9
:1036D00071F08091270190912801DC01ED91FC911E
:1036E0000284F385E02D09950E94D517E5CF089552
:1036F000CF93DF93E82FF0E0E751FA4F2585203193
:10370000C0F43091D004822F90E031110AC0F894B7
:10371000880F991FFC01E95FFE4F808191817894A9
:1037200060C0880F991FFC01E95FFE4F8081918185
:1037300058C08EE0820F8B3058F430E0225F3109A0
:1037400044E6429FC001439F900D11240C9649C04E
:10375000203F91F040F4213191F02231A1F020314D
:10376000D9F582E10DC02D3F89F12E3F91F1213F26
:1037700099F586E090E035C080E090E032C083E1CA
:103780000E94192F2EC085E00E94F02EC1E0D0E0EB
:10379000892B11F4C0E0D0E086E00E94F02E009763
:1037A00011F082E090E08C2B9D2B82309105B9F0D6
:1037B0008330910529F0019731F484EF93E011C033
:1037C00089E591E00EC086EA92E00BC08AEF93E0B3
:1037D00008C08FEF93E005C080E092E002C08CE06B
:1037E00090E0DF91CF910895A3E3B0E0EAEFFBE131
:1037F0000C942833CE0101967C0180E1D7011D9203
:103800008A95E9F76CE072E081E196E00E94B52FBD
:103810000E948D0C1D8E1E8E1F8E18A2212C312C05
:1038200010E0412C512C320120E431EE4DE958E1F9
:1038300000E5B3ECB9A71AA61BA6E4EFEDA3F1E0EF
:10384000FEA31FA218A680EC8CA791ED9DA7A8E966
:10385000AEA7BBE1BFA7E0E4E9A3F1EEFAA38DE9CF
:103860008BA398E19CA3298F3A8F4B8F5C8FC02E3E
:10387000D9A4EAA4FBA49DA19D8BAEA1AE8BBFA150
:10388000BF8BE8A5E88FFCA5F98B8DA58A8B9EA53B
:103890009B8BAFA5AC8B89A09AA0ABA0BCA081E10B
:1038A00096E00E94C330892B09F4E4C081E196E0E0
:1038B0000E94DD309C0133272C32310509F442C0CF
:1038C000ACF42332310509F0ACC019821A821B8294
:1038D0001C821D821E821F82188619861A861B86EC
:1038E0001C861D861E861F86188A99C024343105C1
:1038F00029F02335310509F4B5C093C064E481E1B2
:1039000096E00E94962F2AE030E040E451EE6DE907
:1039100078E181E196E00E9410306CE281E196E06E
:103920000E94962F2AE030E040EC51ED68E97BE1FF
:1039300081E196E00E9410306CE281E196E00E9405
:10394000C72FADCF1F5F143009F0A9CF29813A816D
:103950004B815C81A8EEB3E00E9415334B015C0102
:103960002D813E814F8158850E941533698B7A8B5A
:103970008B8B9C8BC984DA84EB84FC84CD8ADE8AB1
:10398000EF8AF88E2D853E854F8558890E94153324
:103990006B017C0180E2C8168EE4D806E104F104D4
:1039A00010F462E339C090E3C91695E7D906E10443
:1039B000F10410F462E230C0A0E4CA16ACE9DA0601
:1039C000E104F10410F466E227C0B0E5CB16B3ECD5
:1039D000DB06E104F10410F462E11EC0E0E6CE165D
:1039E000EAEEDE06E104F10410F465E115C0F0E74B
:1039F000CF16F1E1DF06F1E0EF06F10410F461E02B
:103A00000BC080EAC81686E8D80681E0E806F10413
:103A100010F463E001C065E08CE10E94630810E0EF
:103A20003ECF00ED080F0A3008F039CFE1E0F0E0BA
:103A3000EC0FFD1F94E0199FE00DF11D1124208172
:103A4000318142815381AAE0B0E00E941533DC014C
:103A5000CB01800F911DA11DB11D80839183A28395
:103A6000B3831DCF898E9A8EAB8EBC8E412C512C88
:103A7000320115CF298D3A8D4B8D5C8D0C2DD9A639
:103A8000EAA6FBA6AD89ADA3BE89BEA3EF89EFA3CD
:103A9000F88DF8A789898CA79A899DA7AB89AEA7CD
:103AA000BC89BFA789A29AA2ABA2BCA241145104AF
:103AB00061047104C9F4CA01B90128AB39AB4AAB3E
:103AC0005BAB0E947C0961E070E080E090E00E94C6
:103AD000D92D1D8E1E8E1F8E18A2212C33243A94B0
:103AE0005BA94AA939A928A98D899E89AF89B88D72
:103AF000481659066A067B0610F528AB39AB4AAB67
:103B00005BAB0E943709CD8CDE8CEF8CF8A0C80E21
:103B1000D11CE11CF11CCD8EDE8EEF8EF8A228A9FF
:103B200039A94AA95BA9281608F4282E831508F498
:103B3000382E8FEF481A580A680A780A5AC0698DD9
:103B40007A8D8B8D9C8D28EE33E040E050E00E9412
:103B5000BF32BA01A9012AE030E081E196E00E947B
:103B600066306CE281E196E00E94962F4AE050E0D8
:103B7000622D81E196E00E9475306CE281E196E071
:103B80000E94962F6D8D7E8D8F8D98A1A30192013D
:103B90000E94BF32BA01A9012AE030E081E196E03B
:103BA0000E9466306CE281E196E00E94962F4AE026
:103BB00050E0632D81E196E00E9475306CE281E176
:103BC00096E00E94C72F298D3A8D4B8D5C8D2C0D70
:103BD0003D1D4E1D5F1DC988DA88EB88FC88C21622
:103BE000D306E406F50610F4A5019401412C512CEE
:103BF000320188EE881683E09806A104B10409F02A
:103C000032CEE396E2E10C944433CF92DF92EF920E
:103C1000FF92CF93DF93CDB7DEB7A5970FB6F89499
:103C2000DEBF0FBECDBF0E94B42D6B017C0184E7C7
:103C3000898381E00E94170C61E0CE0101960E9409
:103C4000C40C0E948D0C6AEF70E080E090E00E944E
:103C5000D92D80919D05833099F481E196E00E94F1
:103C6000C330892B69F40E94B42DDC01CB018C197F
:103C70009D09AE09BF098038934CA94CB140E0F2D0
:103C800080919D058330E1F10E943B09682FCE01B0
:103C900001960E943F098981843511F083E044C078
:103CA0008A8190E0982F88272B81820F911D909315
:103CB0007405809373058C81809375054D814093C5
:103CC0007605413158F750E0440F551FBE016A5F39
:103CD0007F4F87E795E00E940D3580E7898361E09B
:103CE000CE0101960E94C40C0E948D0C62E370E02C
:103CF00080E090E00E94D92D80919D05833011F4E1
:103D000082E012C06CE1CE0101960E943F098981D8
:103D1000803521F68BE1FE013296AEECB5E00190E4
:103D20000D928A95E1F781E0A5960FB6F894DEBF73
:103D30000FBECDBFDF91CF91FF90EF90DF90CF907E
:103D40000895E09172058E2FEE0F990BAA0BBB0B15
:103D5000FC013196EC30F10508F06FC0EC5CFF4FD0
:103D60000C9400336FEC78E081E196E00E94A32F81
:103D700080E993E00E94340D67EB78E081E196E002
:103D80000E94A32F62E978E081E196E00E94A32FD0
:103D900069E678E081E196E00E94A32F6FE378E086
:103DA00081E196E00E94A32F6EE178E081E196E048
:103DB0000E94A32F61EF77E081E196E00E94A32F9C
:103DC0006BEC77E081E196E00E94A32F67EA77E051
:103DD00081E196E00E94A32F60E877E081E196E020
:103DE0000E94A32F81E196E00E949E2F0E944B0E1D
:103DF00024C063E677E01DC06EE377E01AC069E295
:103E000077E017C06AE077E014C066EC76E011C096
:103E100061EB76E00EC06CE976E081E196E00E940D
:103E2000A32F66E576E005C060E476E002C060E2BC
:103E300076E081E196E00E94A32F6AE070E080E0E6
:103E400090E00E94D92D81E196E00E94C330892B39
:103E500029F081E196E00E94DD30F5CF0895ACE1D4
:103E6000B0E0E5E3FFE10C943233909172059F3F9F
:103E700009F027C1482F50E0FA013A97EF36F105D3
:103E800008F013C1E05CFF4F0C94003369E172E06D
:103E90009AC065E272E081E196E00E94B52F85E765
:103EA00089838BE1EEECF5E0DE01129601900D9234
:103EB0008A95E1F76CE1CE0101960E94C40C0E9444
:103EC0008D0C68EC70E080E090E00E94D92D80912C
:103ED0009D05843009F0E9C08FE70E9476080E94B2
:103EE00027088983853509F0E0C061E075E081E14C
:103EF00096E00E94A32F63EE74E081E196E00E94B9
:103F0000A32F65EC74E093C06DE372E081E196E06D
:103F10000E94B52F89E6898361E0CE0101960E9457
:103F2000C40C0E948D0C68EC70E080E090E00E9470
:103F3000D92D80919D05843009F0B7C08FE70E948C
:103F400076080E94270889838E010E5F1F4F7E012D
:103F50004DE1E40EF11C0E942708F80181938F01C6
:103F6000EE15FF05C1F78BE1FE013296AEECB5E030
:103F700001900D928A95E1F78981893409F095C005
:103F800067EA74E081E196E00E94A32F69E874E09B
:103F900081E196E00E94A32F6BE674E048C067E5DC
:103FA00072E081E196E00E94B52F8EEF809372055A
:103FB0007CC080528750805390917505981708F007
:103FC00070C066E672E081E196E00E94B52F6DC098
:103FD00084E18093720564E374E029C085E18093F5
:103FE00072056DEF73E023C086E18093720566EC85
:103FF00073E01DC087E1809372056CE773E017C022
:1040000088E1809372056BE673E011C089E18093CB
:10401000720567E573E00BC08AE18093720562E484
:1040200073E005C08BE1809372056AE173E081E182
:1040300096E00E94A32F39C060E073E081E196E032
:104040000E94A32F9091DC0581E027C06AEE72E008
:1040500081E196E00E94A32F9091DC0582E01DC0D3
:1040600065ED72E081E196E00E94A32F9091DC055E
:1040700084E013C06AEB72E081E196E00E94A32F16
:104080009091DC0588E009C06CE972E081E196E07E
:104090000E94A32F9091DC0580E489278093DC05A2
:1040A0008FEF809372050E940B1181E196E00E94D0
:1040B000C330892B09F458C181E196E00E94DD30BC
:1040C000F4CF0E940E12882309F44EC180910C0592
:1040D000811104C08FEF8093720535C140E050E03C
:1040E00060E070E08DE095E00E94CF334091720572
:1040F000042F042E000C110B220B330BF801319707
:10410000EB31F10508F00FC1E155FF4F0C9400337E
:10411000242F440F330B4091750550E0421753078D
:104120000CF401C16B017C01F1E0CF1AD108E10868
:10413000F10840E2C416D104E104F10450F000910A
:104140007605E7E7F5E040E010E058E2215031095C
:104150000DC0F901E253FA4F61506083CCC0A081D9
:10416000B0E0A217B30729F04F5F32964013F7CFA4
:10417000C0C0C52ED12CE12CF12CC616D706E806FE
:10418000F90639F41181D901A253BA4F11961C9343
:1041900011E05F5FE9CF6F3F71058105910511F077
:1041A00008F0C1C06093E605A6C06F3F71058105A8
:1041B000910511F008F0B7C06093E7059CC06F3F10
:1041C00071058105910511F008F0ADC06093E80517
:1041D00092C020910D0520622037E9F440E050E0C4
:1041E00060E070E08EE095E00E94CF339B01AC016F
:1041F000DC01CB010197A109B1094097A105B105E7
:1042000008F0A4C0A4EDB0E30E9415336A5E7C4AB6
:104210008A46954E24C02636E9F440E050E060E03E
:1042200070E08EE095E00E94CF339B01AC01DC0191
:10423000CB010197A109B1090797A105B10508F0C4
:1042400085C0A8EAB1E60E941533645E7C438E46C1
:10425000944E05C0611571058105910579F08B01BA
:104260009C010054114E2D4938410138E0EF1E07E2
:10427000EAEF2E07E2E03E0708F055C06093DE0546
:104280007093DF058093E0059093E10534C06F3FA4
:1042900071058105910511F008F045C06093E205B4
:1042A0002AC08B019C0101501109210931090F3FDE
:1042B000110521053105B8F56093E3051CC08B019C
:1042C0009C01045C1940210931090D34FDE11F07EF
:1042D0002105310528F47093E5056093E4050BC0D2
:1042E0006115710581059105B1F58FEF8093DD05AD
:1042F00002C01123C1F080910B0581111AC0809179
:10430000AE059091AF05A091B005B091B1050196B1
:10431000A11DB11D8093AE059093AF05A093B0058C
:10432000B093B10506C068E772E081E196E00E94B3
:10433000B52F0E9404128FEF809372056AE081E12D
:1043400096E00E94C72F0E940B110EC061E070E042
:1043500080E090E084CF613471058105910518F704
:1043600061506093DD05C7CF6C96E8E00C944E3346
:1043700060E572E081E196E00E94A32F68E372E0BD
:1043800081E196E00E94A32F81E196E00E94C33074
:10439000892B31F081E196E00E94DD300E942F1FD1
:1043A0000E94051E823029F0833051F463E072E0F0
:1043B00002C06AE172E081E196E00E94A32F0895B5
:1043C0008FEF8093720510920B050E940B11809164
:1043D00072058E3F69F081E196E00E94C330892B1F
:1043E000B1F381E196E00E94DD300E942F1FEFCFF4
:1043F00008950F931F93109172051F3F09F0D8C0C5
:10440000893409F45BC010F5883309F46DC058F4A1
:10441000803309F47BC008F065C08B3109F444C0D7
:104420008132D1F1BFC0813409F48BC030F48933BB
:1044300009F46AC0803481F1B5C0833409F4ABC09B
:1044400008F490C0863409F44AC0ACC0833609F43D
:10445000A2C088F4883541F128F48235D1F1833542
:10446000F1F0A0C0813609F46CC008F07BC08A3539
:1044700009F493C097C0823761F128F4863679F148
:104480008936E1F08FC0883779F08A3709F485C022
:10449000833709F087C003C069E172E015C00E944C
:1044A0001C0E66E972E004C00E94250E60EB72E00B
:1044B00081E196E00E94B52F8EEF72C00E94CC067B
:1044C0000E9405076FEC72E081E196E00E94B52F33
:1044D00069C081E00E94310768EE72E0F5CF0E946A
:1044E000B51160C080535CC060EF71E081E196E07F
:1044F0000E94A32F8091CD0598E0980F9871877E38
:10450000892B8093CD051AC089E04AC06DED71E01A
:1045100081E196E00E94A32F8091F2059091F3052E
:10452000A091F405B091F50520E182278093F20572
:104530009093F305A093F405B093F50510937205DD
:1045400031C067EC71E081E196E00E94A32F809179
:10455000F2059091F305A091F405B091F50540E4C2
:10456000842710C066EB71E081E196E00E94A32FE2
:104570008091F2059091F305A091F405B091F505B5
:1045800020E282278093F2059093F305A093F4052F
:10459000B093F50504C08AE003C00E94B8218FEFF4
:1045A00080937205809172058E3F09F0EBC0F4C0D4
:1045B0000E940E12882309F4EFC080910C0581112E
:1045C00004C08FEF80937205DDC040E050E060E0F2
:1045D00070E08DE095E00E94CF33E09172050E2FE0
:1045E000EE0F110B220B330BF8013197EA30F10576
:1045F00008F0CBC0E653FF4F0C9400338B019C01B5
:104600000154114E2D4938410F37104F2A4F324077
:1046100008F0BBC06093AA057093AB058093AC050E
:104620009093AD058EC06093AE057093AF058093F7
:10463000B0059093B10581E080930B0582C068308E
:1046400071058105910508F0A0C06093B20579C09D
:104650008B019C0101501109210931090A30110512
:104660002105310508F091C06093B3056AC069EB7C
:1046700071E08DE095E00E94083510E0009799F018
:104680000E94E134009779F0183130F4E12FF0E026
:10469000EB55FA4F87871F5F69EB71E080E090E090
:1046A0000E940835EBCF183108F04BC0E12FF0E045
:1046B000EB55FA4F17861F5FF6CF65307105810500
:1046C000910508F062C06093CC053BC08B019C0152
:1046D0000150110921093109063011052105310563
:1046E00008F053C02091CD05287F622B6093CD0543
:1046F00028C08B019C0101501109210931090115C4
:10470000124C2140310508F040C06093A60570931B
:10471000A7058093A8059093A90513C08B019C0160
:1047200001501109210931090115124C21403105AF
:1047300060F56093EE057093EF058093F00590931C
:10474000F10580910B05811113C08091AE05909108
:10475000AF05A091B005B091B1050196A11DB11DA5
:104760008093AE059093AF05A093B005B093B105CB
:104770000E9404128FEF809372056AE081E196E057
:104780000E94C72F0E94A11E07C068E772E081E166
:1047900096E00E94B52FECCF1F910F9108958FEFF7
:1047A0008093720510920B050E94A11E80917205E4
:1047B0008E3F69F081E196E00E94C330892BB1F30E
:1047C00081E196E00E94DD300E94F921EFCF6AE09E
:1047D00070E080E090E00E94D92D81E196E00E9497
:1047E000C330892B29F081E196E00E94DD30F5CFBE
:1047F0000895CF93C82F682F81E196E00E94513130
:1048000080919705C827C0939705CF910895A1E09F
:10481000B0E0EDE0F4E20C94383399830E94F92380
:104820009981892F0E94F9232196E2E00C94543358
:104830001F93CF93DF93182FEB011092970565EB31
:1048400070E081E196E00E94A90662E670E081E1F5
:1048500096E00E94A906812F0E94F923CE010E94B2
:104860000724DF91CF911F9108956091970581E111
:1048700096E00E9451310895ADE3B0E0E2E4F4E245
:104880000C9434337B018A018C3009F45AC108F04E
:1048900042C0863009F4BEC028F5833009F492C0C6
:1048A00088F4813009F474C0823009F02DC26BE1C4
:1048B00070E082E00E9418240EEC15E06BE1F62E09
:1048C000F00E78C0843009F485C0853009F01CC230
:1048D0006091760570E0660F771F85E00E941824CE
:1048E00010E085C0893009F4A7C070F4873009F45E
:1048F0009BC0883009F008C261E070E088E00E9447
:1049000018248091070606C28A3009F4CFC08B3084
:1049100009F4F7C0F9C18A3609F46BC1D8F48736B7
:1049200009F433C138F4853609F413C1863609F425
:104930001FC1EAC1883609F430C1893609F0E4C1E3
:1049400061E070E089E60E9418240E94CC060E9473
:104950000507D8C18D3609F4B5C138F48B3609F492
:1049600074C18C3609F47DC1CFC18E3609F4BFC144
:10497000873C09F0C9C161E070E087EC0E9418240F
:1049800081E00E94F9230E94352410929805C6C147
:1049900069E270E081E00E94182405EA15E079E2FE
:1049A000F72EF00EF80181918F010E94F923F01289
:1049B000F9CFB2C1F80181918F010E94F923F01261
:1049C000F9CFAAC161E070E083E00E9418240E9440
:1049D000051EA0C161E070E084E00E94182481E01F
:1049E0000E94F9230E9435240E94F41B97C1212FB5
:1049F00030E08091760590E0880F991F28173907DD
:104A000008F08AC1F901E958FA4F80810E94F92320
:104A10001F5FEDCF62E070E086E00E94182480E91D
:104A200093E00E94072478C161E070E087E00E9473
:104A30001824809175056EC186E6898361E0CE01F8
:104A400001960E94C40C0E948D0C68EC70E080E01E
:104A500090E00E94D92D80919D05843019F561E286
:104A6000CE0101960E943F0989818634A9F460E253
:104A700070E089E00E9418248E010E5F1F4F7E01B6
:104A8000F2E2EF0EF11CF80181918F010E94F923EF
:104A90000E151F05C1F740C161E070E089E00E947A
:104AA000182430C161E070E089E031C16DE170E04F
:104AB0008AE00E9418241092E9052091A2058091B5
:104AC000F2059091F305A091F405B091F50522232C
:104AD00011F0806801C08F778093F2059093F30501
:104AE000A093F405B093F50509EE15E08DE1F82EDD
:104AF000F00EF80181918F010E94F923F012F9CF95
:104B00000BC161E270E08BE00E94182480910601E5
:104B10008F3F39F08091060191E0980F9093060144
:104B200002C0809106010E94F92310E0812F0E94AB
:104B3000781B0E94A40B0E9407241F5F1031B1F75D
:104B4000EBC061E070E08CE00E94182480910606C2
:104B5000E1C061E070E085E60E941824F9E2EF16FA
:104B6000F10409F0D6C089E2F801A5EAB5E068C011
:104B700061E070E086E60E9418248BE1E816F104FB
:104B800009F0C7C08BE1F80159C061E070E087E629
:104B90000E9418240E941C0EB5C061E070E088E6F7
:104BA0000E94182485E789838BE1EEECF5E0DE01B5
:104BB000129601900D928A95E1F76CE1CE01019673
:104BC0000E94C40C0E948D0C60E273E080E090E0D3
:104BD0000E94D92D80919D05843009F09AC061E032
:104BE000CE0101960E943F098981853509F091C067
:104BF00089C061E070E08AE60E94182489E68AA3F1
:104C000061E0CE0182960E94C40C0E948D0C60E28D
:104C100073E080E090E00E94D92D80919D05843062
:104C200009F077C06CE1CE0182960E943F098AA10B
:104C3000893409F06EC08BE1FE01B396AEECB5E0AD
:104C400001900D928A95E1F75DC061E070E08BE61E
:104C50000E941824F8018081809307060E94250E87
:104C600051C061E070E08CE60E941824F0E2EF167B
:104C7000F10461F487E6898380E2F801DE0112968F
:104C800001900D928A95E1F761E203C087E4898380
:104C900061E0CE0101960E94C40C0E948D0C6CE470
:104CA00074E080E090E00E94D92D80919D058430D1
:104CB00081F561E0CE0182960E943F098AA1873486
:104CC00041F520C061E070E08DE60E9418248DE17E
:104CD000E816F104F1F4F801A9EEB5E08DE18A0FD0
:104CE00091919D938A13FCCF0E941B170BC061E02A
:104CF00070E08EE60E941824F801808180930606F9
:104D00000E94060E81E006C061E070E08AEC0E941D
:104D1000182480E00E94F9230E943524ED96E6E0F5
:104D20000C945033A0E0B0E0E8E9F6E20C943233A2
:104D3000C6EED3E014E606E035E0F32E44E0E42EC0
:104D400053E0D52E62E0C62E81E196E00E94C3308A
:104D5000892B09F49CC081E196E00E94DD30282F68
:104D600080935104E09150044E2F50E0473051059C
:104D700058F7FA01EC52FF4F0C940033853B21F7B2
:104D800081E080935004E0CF823609F07DC0C0926C
:104D90005004DACF80934F0480934E04D092500495
:104DA000D3CF9C01332730934D0420934C04909132
:104DB0004E04892780934E04E0925004C5CF582FAB
:104DC000442720914C0430914D04242B352B3093F3
:104DD0004D0420934C0490914E04892780934E04F7
:104DE000F09250042536310508F4AECF61E070E052
:104DF0008CEC0E94182481E00E94F9230E94352443
:104E000043C020914A0430914B04F901EA51FC4F10
:104E1000808390914E04892780934E04C9010196A6
:104E200090934B0480934A0420914C0430914D049C
:104E30008217930708F488CF0093500485CF8091A0
:104E40004E0482130BC060914A0470914B0446EEED
:104E500053E080914F040E943C240DC062E070E05A
:104E60008BEC0E94182480914F040E94F9238091BA
:104E700097050E94F923FE01812F11928A95E9F787
:104E800010924B0410924A04109250045DCFCDB79B
:104E9000DEB7E8E00C944E3381E080939805809172
:104EA0009805882349F081E196E00E94C330892B60
:104EB000B1F30E949226F3CF0895CF92DF92EF9242
:104EC000FF921F93CF93DF93CDB7DEB7AA970FB6AC
:104ED000F894DEBF0FBECDBF0E94A82D6B017C01F0
:104EE00082E6898389E2E5EAF5E0DE011296019027
:104EF0000D928A95E1F781E00E94170C0E945316EB
:104F00002D9811E080910401882309F470C00E945B
:104F1000A82DDC01CB018C199D09AE09BF09893C84
:104F20009105A105B10568F1112359F10E94A82D41
:104F30006B017C012C9A80ED97E00E94D6076AE213
:104F4000CE0101960E94C40C2C9880E090E00E9453
:104F5000D6070E948D0C62E370E080E090E00E9432
:104F6000D92D80919D05843059F461E0CE010196E0
:104F70000E943F0911E08981823419F410E001C0D8
:104F800011E08BE00E94F02E892B71F411E00CC02F
:104F90002D9A2C9A0E948D168D30910599F04CF423
:104FA0000A9781F02D982C980E947616892B81F70C
:104FB00013C08332910569F08234910599F70E94FC
:104FC0004C27F0CF85E093E00E94A4160E94CF23E7
:104FD000E9CF0E94F41BE6CF80910401811105C046
:104FE0008091D00481110E945C1BA8958BCF809189
:104FF000D004853009F08BCF8091AC04811187CF2C
:10500000AA960FB6F894DEBF0FBECDBFDF91CF9149
:105010001F91FF90EF90DF90CF9008958F929F9215
:10502000AF92BF92CF92DF92EF92FF921F93CF93F6
:10503000DF938BE00E94F02E892B09F08BC068EC87
:1050400070E080E090E00E94D92D80E090E00E9426
:10505000D6070E94A82D6B017C014B015C0180ECFE
:10506000880E82E1981EA11CB11C0E94A82D681513
:1050700079058A059B0530F48BE00E94F02E892B80
:10508000A1F366C08BE00E94F02E892B09F060C06E
:1050900080ED97E00E94D6070E94A82D4B015C018D
:1050A000D0E0C1E088E4C80E86E2D81EE11CF11C05
:1050B00011E08BE00E94F02E892B31F5C814D90441
:1050C000EA04FB0430F480ED97E00E94D607D1E0BB
:1050D000F0CF0E94A82DDC01CB0188199909AA09FB
:1050E000BB09893C9105A105B10518F30E94A82DC3
:1050F0004B015C01C12719F080ED97E002C080E010
:1051000090E00E94D607D5CF80E090E00E94D607BD
:10511000DD23B9F08091060690E0019665E070E02D
:105120000E94AB32809306060E94060E0E94B716BC
:105130000E94250E64EF71E080E090E00E94D92D7E
:1051400009C080E00E9431070E9458140E941C0E82
:105150000E945D27DF91CF911F91FF90EF90DF902C
:10516000CF90BF90AF909F908F900895CF92DF9295
:10517000EF92FF9280E00E9408080E94DF0761E042
:105180008DE00E94842E61E08CE00E94842E60E01D
:105190008BE00E94842E60E085E00E94842E61E016
:1051A00085E00E94C02E60E086E00E94842E61E0CF
:1051B00086E00E94C02E60E083E00E94842E61E0C1
:1051C00083E00E94C02E61E08EE00E94842E60E0A9
:1051D0008EE00E94C02E0E94CD070E94F4077894B2
:1051E0000E94B7160E94250E4091EE055091EF05E2
:1051F0006091F0057091F10526E081E196E00E9452
:10520000963180ED97E00E94D60761E08BE00E9426
:10521000C02E2D9A0E94531684E193E00E94A4169A
:1052200080910401811104C08091CD05887129F419
:10523000609127017091280102C060E070E080E970
:1052400093E00E940F0D8BE293E00E94A41664E6A7
:1052500070E080E090E00E94D92D0E941B170E9410
:10526000761604970CF44DC00E948D168234910579
:1052700009F047C00E948D168E34910509F041C097
:105280000E948D1684349105E1F50E948D16819758
:10529000C1F580E090E00E94D6070E945D270E9441
:1052A0000E282D9880E090E00E94D6070E94E61616
:1052B0000E94A82D2091D004253039F030EDC32E66
:1052C00037E0D32EE12CF12C06C020E2C22E2EE4D2
:1052D000D22EE12CF12CC60ED71EE81EF91E8091AD
:1052E00006018F3F89F40E94A82D6C157D058E055F
:1052F0009F0550F48091D004882389F30E945C1BA1
:10530000EECF10920401CBCF80E00E949C1788233F
:1053100029F08091A9048150809307060E943D17CF
:10532000FF90EF90DF90CF900895A2E2B0E0EBE91C
:10533000F9E20C942E33A8950E949A0C80912701D3
:1053400090912801DC01ED91FC910084F185E02D24
:105350000995892B39F18091270190912801DC0171
:10536000ED91FC910284F385E02D09959091D00494
:10537000992319F00E94D517E1CF20915A0430E00B
:10538000A9014F5F5F4F4F71552760915B0470E03B
:105390004617570799F2F901EB59FB4F8083409369
:1053A0005A04CCCF80919D05843009F086C00E94BC
:1053B000B42D611571058105910549F06093E204F2
:1053C0007093E3048093E4049093E5040CC081E0BF
:1053D00090E0A0E0B0E08093E2049093E304A09317
:1053E000E404B093E5048091D4049091D5048160E5
:1053F0009093D5048093D40469E085E894E00E94FA
:105400003F090E948D0C20918E0480918504982F75
:10541000922796FF45C090E4922790938E04982F90
:105420009873983341F510E0212F30E08091850486
:10543000877090E0821793079CF11F5F8091CD05E4
:10544000212F30E084FF07C0F901EB57FB4F80812B
:105450000E94B012E9CF8091270190912801DC01D0
:10546000ED91FC91D901AB57BB4F0190F081E02D3C
:105470006C910995D9CF8F7399F4809186048093AC
:10548000DD04809187048093DB04809188048093FD
:10549000DA0480918B0490E09093D3048093D2043B
:1054A00080915904813019F482E0809359048091ED
:1054B0005904833011F4109259040E94B42D6B01E9
:1054C0007C018091D6049091D704A091D804B0912A
:1054D000D9040097A105B105C9F0A7019601281BC1
:1054E000390B4A0B5B0BDA01C901883B9B40A105D4
:1054F000B10560F00E9437098093DC041092D60455
:105500001092D7041092D8041092D9048091E60426
:105510009091E704A091E804B091E9044601570195
:10552000881A990AAA0ABB0A85EA95E00E945D0AD0
:1055300086169706A806B90608F4C9C0C092E60404
:10554000D092E704E092E804F092E904A8958091F3
:1055500006018830A0F08091F2059091F305A091AA
:10556000F405B091F5053CE1B695A795979587951B
:105570003A95D1F7892B8A2B8B2B09F079C1809131
:1055800006018F5F809306018091E2049091E3040D
:10559000A091E404B091E5040097A105B105F1F0F4
:1055A000C81AD90AEA0AFB0A85EA95E00E945D0A50
:1055B0006C157D058E059F0508F063C18091F2058D
:1055C00084FD04C080ED97E00E94D6071092E204AB
:1055D0001092E3041092E4041092E50490918E047A
:1055E000907C90938E0460915A0480915B0420918A
:1055F0005904681709F465C1223009F062C1905856
:1056000090938E04E091CD05E770F0E0EC57FC4FED
:105610002081293008F03AC1215030E0321338C1DE
:1056200080935B0497E3920F80918E04892B809383
:105630008E0420935C0483E0809359042C9A80911B
:10564000D004853009F089C11091A70417FD85C1E8
:1056500017709091F004911183C18091F20582FF3F
:105660008AC185E00E94F02E21E0892B09F083C1D8
:105670008091D004853009F0A5C18091A8048111E2
:10568000A6C117E08091AA04811177C1812F0E94E1
:105690004A0A8091F1040E94AC0CE091CD05E770BC
:1056A000F0E0EC57FC4F60818EE894E00E94BD0C66
:1056B000E091F104EF5FE093F104E83109F463C194
:1056C000F0E0EB55FA4F8785882309F45CC10E940E
:1056D000E40C813061F58091CD05887141F18091B4
:1056E000D4049091D504880F991F9093D50480938A
:1056F000D4040E948D0C0E94B42D611571058105A2
:10570000910549F06093D6047093D7048093D80430
:105710009093D9040CC081E090E0A0E0B0E08093C9
:10572000D6049093D704A093D804B093D904809161
:10573000CD0584FF2BC08091E2049091E304A091F9
:10574000E404B091E504892B8A2B8B2BF9F080912E
:10575000D4049091D5048E7F0E94C50B182F6091C0
:10576000D2048091DD040E94CB17482F612F8091D5
:10577000DC0449A30E94CB1700910706282F49A1FA
:105780006091DA048091DB040E940F142C988091C0
:10579000EE048130B9F018F08230B1F140C08BE0F6
:1057A0000E94F02E892BD9F581E08093EE040E94AF
:1057B000A82D6093EA047093EB048093EC0490931B
:1057C000ED042DC08BE00E94F02E892B31F50E9454
:1057D000A82DC090EA04D090EB04E090EC04F09087
:1057E000ED04DC01CB018C199D09AE09BF09893E8E
:1057F0009340A105B10598F082E08093EE0480ED1E
:1058000097E00E94D6070BC08BE00E94F02E892BF8
:1058100031F080E090E00E94D6071092EE04809173
:10582000D004853009F0D7C08091990590919A05F0
:10583000A0919B05B0919C05892B8A2B8B2B09F499
:10584000A9C00E94A82DC0909905D0909A05E0901B
:105850009B05F0909C05DC01CB018C199D09AE09DC
:10586000BF0988389341A105B10508F093C0B3C0C2
:1058700080910601883009F42D9A89E08093060111
:1058800026CF80E090E00E94D607A8CE28E0C5CEC3
:10589000861799F03F5F432F50E090E0FA01E257FE
:1058A000FB4FDC01AB59BB4F7C917083FA01E45A8A
:1058B000FB4F708301968F71B1CE80935B04232FD1
:1058C000B1CE2430A9F480915C042DE534E0AFE83A
:1058D000B4E0F9019E2F921B981718F491919D93B3
:1058E000F9CF895C90918E04892B80938E04A3CE8E
:1058F0008091EE04823059F4916090938E042D9A39
:10590000AE014F5F5F4F7A0110E0BA0110C02D98D1
:1059100080915904811103C081E0809359048091E2
:105920005904833069F784E080935904E9CF812FCB
:1059300069A37AA30E94781BD7018D939D937D0163
:105940001F5F69A17AA1103191F78091CD054FE8D1
:1059500054E087700E94E30A71CE1091B20579CEAF
:10596000112309F47ACE8091EF04891779F08F5FC3
:105970008093EF0472CE20E07BCE143010F01350F1
:1059800085CE10E083CE1092F104A1CE1092EF04E8
:10599000115063CE81E00E949C17882339F08091DA
:1059A000A9048150809307060E943D178091AC04A2
:1059B000882389F00E945D2780E00E94170C0E94D6
:1059C0008D0C09C0222309F461CE17E05FCE22239B
:1059D00009F458CE56CEA296ECE00C944A330895C2
:1059E0008230E8F4E82FF0E0EE0FFF1FE556FE4F9F
:1059F00071836083813041F0809169008C7F482BF6
:105A000040936900E89A089580916900440F551FFA
:105A1000440F551F837F482B40936900E99A0895EE
:105A20001F920F920FB60F9211242F933F934F9313
:105A30005F936F937F938F939F93AF93BF93EF93F6
:105A4000FF93E0919B01F0919C010995FF91EF91EB
:105A5000BF91AF919F918F917F916F915F914F9186
:105A60003F912F910F900FBE0F901F9018951F928E
:105A70000F920FB60F9211242F933F934F935F9382
:105A80006F937F938F939F93AF93BF93EF93FF9306
:105A9000E0919D01F0919E010995FF91EF91BF91D9
:105AA000AF919F918F917F916F915F914F913F91B6
:105AB0002F910F900FBE0F901F9018951F920F926D
:105AC0000FB60F9211242F933F938F939F93AF9311
:105AD000BF938091090690910A06A0910B06B091A0
